:10064800537461727472656B0046616365206661FC
:10065800646531322300506C6163652043617264C4
:100668002020202020202000446F6F7220436C6FD0
:10067800736564202020004A616920537269205202
:10068800414D0053797374656D20496E69746961D1
:100698006C697A696E670053657269616C20496E8E
:1006A800697469616C697A65640041542B525354CA
:1006B8000050434420496E697469616C697A6564C5
:1006C80000446F6F72204F70656E6564004D454D34
:1006D800424552203D20310055706C6F6164696E4F
:1006E8006720446174612020202020004745542061
:1006F8002F7570646174653F6B65793D524A345A51
:10070800435A5838415637563158524C266669650F
:100718006C64313D31303000446F6F7220436C6F30
:10072800736564004D454D424552203D20320047D7
:100738004554202F7570646174653F6B65793D522F
:100748004A345A435A5838415637563158524C262B
:100758006669656C64313D323030004D454D424527
:1007680052203D203400474554202F757064617431
:10077800653F6B65793D524A345A435A5838415659
:1007880037563158524C266669656C64313D3430B1
:100798003000415400436F6E6E656374696E672E56
:1007A8002E2E2E2E2E0041542B43574A41503D22C7
:1007B800537461727472656B222C224661636520E2
:1007C80066616465313223220041542B4349465304
:1007D8005200436F6E6E656374656420746F2057B2
:1007E8006946690055706C6F6164696E6720496E6F
:1007F8006974204461746100474554202F75706402
:100808006174653F6B65793D524A345A435A58388A
:10081800415637563158524C266669656C64313DED
:100828003930300041542B43495053544152543DC0
:1008380022544350222C223138342E3130362E3176
:1008480035332E313439222C38300041542B43496A
:100858005053454E443D34370041542B434950438F
:100868004C4F53450055706C6F616465642044615A
:10087800746120202020202000496E697469616C11
:10088800697A696E6720576946690072656164799B
:100898000041542B43574D4F44453D310041542BA3
:0608A80043574C415000D3
:100E5800C103C102C101C100C10444002500000052
:100E680000410020004100C40042001E0000430071
:100E780062FF06484300C1FF0651540065000000A8
:100E8800000000000000000000000000000000005A
:100E98000041007A004100C500410079004100612D
:100EA800004600037265616479004300314F4B00CE
:100EB8004E00B32B43494653523A53544149502CA0
:100EC8000060290038474554202F757064617465A7
:100ED8003F6B65793D524A345A435A583841563720
:100EE800563158524C266669656C64313D004400A1
:100EF8008F74BEF266440093B7E5DCE1440097378F
:100F080084F1E144009B07ABAFBF4400340000000C
:050F1800004100000093
:10143C00E49000C6F0F580F590F5A090002504F03E
:10144C0012134E1213C7E4FD7F011216257BFF7A8F
:10145C0006795E121809E4FD7F021216257BFF7ACD
:10146C0006797012180912156F120AA1E49000C6C1
:10147C00F09000C6E0FF2421F582E43400F583E00F
:10148C00FE74292FF582E43400F583EEF09000C64B
:09149C00E004F0E0B404DA80CDB4
:10134E001218FE1218E57BFF7A06797F12167712B5
:10135E001246E4FD7F011216257BFF7A06798B1269
:10136E001809E4FD7F021216257BFF7A06799F127B
:10137E001809C2037FD07E0712186F7BFF7A067999
:10138E00B21216777F0D1200037F0A120003120CA1
:10139E006912186B12178E12198A12193B7F41129D
:1013AE0016C4E4FD7F041216257BFF7A0679B91266
:0913BE0018097FE87E0302186F94
:10192900C2837F017E001218B0D2837F017E00023C
:0219390018B0E4
:10156F00E49000C7F0A3F0A3F0A3F07B017A007919
:10157F002D7F5212112EEF70357B017A00792112D7
:10158F000F23EF7029900020F09000C7F09000C754
:10159F00E0FFC39404501774212FF582E43400F553
:1015AF0083E0FF1214A59000C7E004F080DFE49001
:1015BF0000C4F07F64FE12186F7F647E0002186F04
:100AA10090008FE0FF900021E06F6003020B339014
:100AB1000090E0FF900022E06F7077900091E0FFDE
:100AC100900023E06F706B900092E0FF900024E0B3
:100AD1006F705F9000C504F0900079F0D2A7E4FD3B
:100AE1007F021216257BFF7A0679C9121809E4FDE7
:100AF1007F041216257BFF7A0679D5121809E4FDC9
:100B01007F061216257BFF7A0679E0121809121862
:100B11006B12186B7BFF7A0679F412109612186B20
:100B2100C2A7E4FD7F021216257BFF7A0779201206
:100B31001809900093E0FF900021E06F6003020B21
:100B4100C9900094E0FF900022E06F707B900095C7
:100B5100E0FF900023E06F706F900096E0FF90003F
:100B610024E06F70639000C504F090007904F0D226
:100B7100A7E4FD7F021216257BFF7A0679C91218B8
:100B810009E4FD7F041216257BFF7A07792C1218E0
:100B910009E4FD7F061216257BFF7A0679E012181B
:100BA1000912186B12186B7BFF7A077937121096AE
:100BB10012186BC2A712186BE4FD7F021216257B77
:100BC100FF7A07792012180990009BE0FF9000211D
:100BD100E06F6003020C5B90009CE0FF900022E05C
:100BE1006F707790009DE0FF900023E06F706B9035
:100BF100009EE0FF900024E06F705F9000C504F05C
:100C0100900079F0D2A7E4FD7F021216257BFF7ACE
:100C11000679C9121809E4FD7F041216257BFF7AB3
:100C2100077963121809E4FD7F061216257BFF7A06
:100C31000679E012180912186B12186B7BFF7A07FC
:100C4100796E12109612186BC2A7E4FD7F0212167C
:100C5100257BFF7A077920121809E4900021F09092
:080C61000079F09000C5F022BB
:10150C00E49000FBF0A3F09000FBF0A3F09000FB44
:10151C00E0FEA3E0FFE4FCFD7BE87AFDF9F8D312D2
:10152C00048B40109000FCE004F070E19000FBE0B4
:10153C0004F080D9E49000FBF0A3F09000FBE0FEF7
:10154C00A3E0FFE4FCFD7BE87AFDF9F8D312048BF1
:10155C0040109000FCE004F070E19000FBE004F01F
:02156C0080D924
:01156E00225A
:1014A500900020E0C39404504FEFC4540F2430FE45
:1014B500C3943A400474072EFE900000E02425F5FD
:1014C50082E43400F583EEF0900000E004F0EF5480
:1014D5000F2430FEC3943A400474072EFE9000009A
:1014E500E02425F582E43400F583EEF0900020E059
:1014F50004F0900000E004F0900020E0C394044064
:0615050005E4900000F077
:01150B0022BD
:0B0D70009000CCEBF0A3EAF0A3E9F048
:100D7B00E49000D2F0A3F09000D8F0A3F0C205C22B
:100D8B00061213C79000CCE0FBA3E0FAA3E0F91224
:100D9B00000E9000D4EEF0A3EFF09000CFE0FBA399
:100DAB00E0FAA3E0F912000E9000D6EEF0A3EFF0FC
:100DBB007BFF7A07799A1216777F0D1200037F0A51
:100DCB00120003E4FD7F021216257BFF7A07799D43
:100DDB001218097FE87E0312186F7BFF7A0779AE32
:100DEB001216777F0D1200037F0A1200037FD07E4D
:100DFB000712186F7BFF7A0779D11216777F0D12C6
:100E0B0000037F0A12000312186BE4FD7F03121616
:100E1B00257BFF7A0779DA1218097FD07E07121823
:100E2B006FE4FD7F041216257BFF7A0779EC12180D
:100E3B00097FE87E0312186F12186B7BFF7A087913
:0C0E4B000012109612186BE49000C4F026
:010E57002278
:101096009000DAEBF0A3EAF0A3E9F07BFF7A087997
:1010A6002C1216777F0D1200037F0A120003121806
:1010B6006B12186B7BFF7A0879531216777F0D1225
:1010C60000037F0A12000312186B12186B9000DAE5
:1010D600E0FBA3E0FAA3E0F91216777F0D120003F6
:1010E6007F0A12000312186B12186B7BFF7A0879BD
:1010F600611216777F0D1200037F0A1200037BFF31
:101106007A07799A1216777F0D1200037F0A12006A
:1011160003E4FD7F061216257BFF7A08796D121807
:08112600097FDC7E0502186F51
:03002300020FE0E9
:0F0FE000C0E0C083C082C0D075D000C006C0077B
:100FEF00209803021089AF999000C4E0FE2409F500
:100FFF0082E43400F583EFF074092EF582E43400B7
:10100F00F583E0B40A1874082EF582E43400F583F2
:10101F00E0B40D0A2003079000C4E4F0D20390005F
:10102F00C4E0FE2409F582E43400F583E0B40A132A
:10103F0074082EF582E43400F583E0B40D05300317
:10104F0002D2009000C4E0D394144018EF640D60F6
:10105F0013300310E014F0E02409F582E43400F5B6
:10106F0083740DF09000C4E0D39414400530030254
:0A107F00E4F09000C4E004F0C29811
:0D108900D007D006D0D0D082D083D0E03286
:03000B0002175089
:08175000C0E0C083C082C0D0DC
:10175800C28C758CF8758ACDD28C900002E004F0AA
:101768007006900001E004F0900001E0B4030EA3BD
:0D177800E0B4E809900001E4F0A3F0B287AE
:09178500D0D0D082D083D0E03234
:04186B007F647E0018
:10186F00E4FDFCC3ED9FEC9E5015E4FBFA0BBB00AF
:0F187F00010ABA03F8BBE8F50DBD00010C80E4C7
:01188E002237
:100C6900E49000C7F0A3F0A3F0A3F0A3F0FD7F0385
:100C79001216257BFF7A087981121809C2B2121857
:100C89006BD2B212186F200003020D6FC200E490FC
:100C990000C7F09000C4E0FF9000C7E0FEC39F507A
:100CA90020740A2EF582E43400F583E0FF747B2E6C
:100CB900F582E43400F583EFF09000C7E004F0809A
:100CC900D2E49000C4F0787B7C007D017BFF7A0838
:100CD900799312062BEF600690007A7401F01218CE
:100CE9006B90007AE0B4011C7BFF7A08799912169F
:100CF900777F0D1200037F0A12000312186B900010
:100D09007A7402F090007AE0B402207BFF7A0879C5
:100D1900A51216777F0D1200037F0A1200037FC404
:100D29007E0912186F90007A7403F090007AE064DB
:100D3900036003020C8F9000C1E0F9A3E0FAA3E07D
:100D49009000CFC9F0A3EAF0A3E9F0900062E0FBBC
:100D5900A3E0FAA3E0F9120D707FF47E0112186F77
:060D690090007A7404F012
:010D6F002261
:100026000000000000000000000000000000002F9B
:100036000000000000000007000000070000001498
:10004600007F0014007F00140024002A007F002A8D
:100056000012002300130008006400620036004905
:1000660000550022005000000005000300000000BB
:100076000000001C00220041000000000041002298
:10008600001C000000140008003E000800140008D0
:100096000008003E000800080000000000A0006004
:1000A60000000008000800080008000800000060C2
:1000B600006000000000002000100008000400029C
:1000C600003E005100490045003E00000042007F0E
:1000D6000040000000420061005100490046002136
:1000E60000410045004B0031001800140012007F4B
:1000F600001000270045004500450039003C004A35
:1001060000490049003000010071000900050003A4
:1001160000360049004900490036000600490049FA
:100126000029001E00000036003600000000000016
:1001360000560036000000000008001400220041AE
:100146000000001400140014001400140000004104
:1001560000220014000800020001005100090006F8
:100166000032004900590051003E007C0012001187
:100176000012007C007F0049004900490036003E1D
:100186000041004100410022007F00410041002261
:10019600001C007F0049004900490041007F00091A
:1001A600000900090001003E004100490049007AAB
:1001B600007F000800080008007F00000041007F63
:1001C60000410000002000400041003F0001007F88
:1001D6000008001400220041007F0040004000405B
:1001E6000040007F0002000C0002007F007F000438
:1001F60000080010007F003E004100410041003E23
:10020600007F0009000900090006003E0041005178
:100216000021005E007F0009001900290046004603
:10022600004900490049003100010001007F00013A
:100236000001003F004000400040003F001F00203A
:1002460000400020001F003F004000380040003FF3
:100256000063001400080014006300070008007023
:1002660000080007006100510049004500430000F6
:10027600007F004100410000005500AA005500AA79
:100286000055000000410041007F0000000400020C
:100296000001000200040040004000400040004011
:1002A6000000000300050000000000200054005478
:1002B60000540078007F00480044004400380038AD
:1002C6000044004400440020003800440044004834
:1002D600007F003800540054005400180008007EC7
:1002E600000900010002001800A400A400A4007C7C
:1002F600007F000800040004007800000044007D30
:1003060000400000004000800084007D0000007F67
:10031600001000280044000000000041007F00405B
:100326000000007C0004001800040078007C00082F
:1003360000040004007800380044004400440038FB
:1003460000FC0024002400240018001800240024C7
:10035600001800FC007C00080004000400080048A7
:1003660000540054005400200004003F00440040A4
:100376000020003C004000400020007C001C0020C3
:1003860000400020001C003C004000300040003CC3
:1003960000440028001000280044001C00A000A013
:1003A60000A0007C004400640054004C004400009F
:1003B6000010007C008200000000000000FF00002A
:1003C600000000000082007C001000000000000613
:0603D60000090009000609
:10124600C29212183CD2927FAE1218CB7FD51218DA
:10125600CB7F801218CB7FA81218CB7F3F1218CBFA
:101266007FD31218CBE4FF1218CB7F401218CB7F26
:101276008D1218CB7F141218CB7F201218CBE4FFE7
:101286001218CB7FA11218CB7FC81218CB7FDA12A7
:1012960018CB7F121218CB7F811218CB7FCF121872
:1012A600CB7FD91218CB7FF11218CB7FDB1218CB6C
:1012B6007F401218CB7FA41218CB7FA61218CB7FC3
:0712C600AF1218CB0213C7A1
:0512CD009000E0EFF0CD
:1012D200E49000E2F09000FDE02405FFE433FEC359
:1012E200EF9480EE6480948050079000E0E0B40AAE
:1012F2000312194D9000E0E0640A604FE024E0F030
:101302009000E0E075F00AA42426F582E5F03400AE
:10131200F583C083C0829000E2E0D082D08375F072
:10132200021204A1E4740193FF9000E1F012188FFD
:101332009000FDE004F09000E2E004F0E0B405C0AB
:0B134200E4FF12188F9000FDE004F0A3
:01134D00227D
:101809009000DDEBF0A3EAF0A3E9F09000DDE0FB46
:10181900A3E0FAA3E0F91203DC60179000DDA3E46A
:1018290075F001120456A9F0FA1203DCFF1212CD69
:0318390080D92231
:1013C7007F211218CBE4FF1218CB7F7F1218CB7F37
:1013D700221218CBE4FF1218CB7F071218CB7F78A5
:1013E70012195D7F4012188FE49000DAF0A3F0E441
:1013F700FF12188F9000DBE004F070069000DAE02F
:1014070004F0C39000DAE06480948440E27F211204
:1014170018CBE4FF1218CB7F7F1218CB7F2212184C
:10142700CBE4FF1218CB7F071218CB7F7812195D18
:051437007F4002188F48
:10194D009000FEE004F0E05407FFF0E4FD021625E0
:101625009000E4EDF09000E3EFF0D394075042A36F
:10163500E0FF947F503B9000E3E09000FEF09000C7
:10164500FDEFF07F211218CB9000E4E0FF1218CBDC
:101655007F7F1218CB7F221218CB9000E3E0FF1298
:1016650018CB7F071218CB7F7812195D7F401218AF
:021675008F22C2
:0D195D00C291D291D290C291C29002188F17
:09198100C291D290C291D29122D0
:0A197700D291D2902091FDC290227F
:10188F00C2907E07EFA806088002C313D8FC1392FC
:10189F0091D290C2901EC3EE6480948050E60219DC
:0118AF0077C1
:1018CB009000E5EFF07F7812195DE4FF12188F900E
:0A18DB0000E5E0FF12188F021981EA
:10183C00E49000C7F0A3F09000C7E0FEA3E0FFE443
:10184C00FCFD7BE87AFDF9F8D312048B4010900074
:0E185C00C8E004F070E19000C7E004F080D90D
:01186A00225B
:050F1D004200FF00008E
:1018E5007598504387805389CF438920758DFFE4D0
:0918F500F58BD28ED29CD2AC22FC
:1018FE00E4F589F5A8C28CC28D43890143A882758F
:08190E008CF8758ACDD28C2201
:080003008F993099FDC299228A
:0B1677009000DDEBF0A3EAF0A3E9F027
:10168200E49000E2F012000E9000E0EEF0A3EFF022
:10169200E4FDFCD39000E1E09D9000E0E09C40215D
:1016A2009000DDE0FBA3E0FAA3E0F98D828C8312C7
:1016B20003F5FF9000E2F01200030DBD00010C8063
:0116C200D255
:0116C3002204
:0B15CF009000F5EBF0A3EAF0A3E9F0B8
:1015DA00E49000FAF012000E9000F8EEF0A3EFF09B
:1015EA00E4FDFCD39000F9E09D9000F8E09C4021D6
:1015FA009000F5E0FBA3E0FAA3E0F98D828C831258
:10160A0003F5FF9000FAF01200030DBD00010C80F3
:0B161A00D27F0D1200037F0A020003C4
:0D112E009000CBEFF0A3EBF0A3EAF0A3E9F3
:10113B001219167D077F0D1217D07D037F1412191C
:10114B006A9000CBE09000D1F09000E87401F0A31E
:10115B00F0A37400F0A374D1F0A37401F0A3740096
:10116B00F0A374CFF07B017A0079D17F0C1208AE1B
:10117B00EF70399000CFE07004A3E06410702D90F5
:10118B0000D1E0FE9000CCE0FBA3E0FAA3E0F9EE87
:10119B001204229000D2E0FE9000CCE0FBA3E0FA18
:0E11AB00A3E0F9900001EE12043480027FFEF2
:0111B9002213
:0B0F23009000CBEBF0A3EAF0A3E9F094
:100F2E00E49000CF121916E4FD7F0D1217D07D80CC
:100F3E007F0E12191B9000D27493F0A37420F090C0
:100F4E0000E87402F07B01A314F0A37400F0A37404
:100F5E00D2F0A3EBF0A37400F0A374D0F07A007972
:100F6E00D27F0C1208AE9000CEEFF07058FC74D207
:100F7E002CF582E43400F583E0FE9000CBE0FBA379
:100F8E00E0FAA3E0F9AF048F82758300EE12043409
:100F9E009000CFE0FE74D22FF582E43400F583E0AA
:100FAE00FDEE6D9000CFF00CECB404C274D22CF5B3
:100FBE0082E43400F583E0FF9000CFE06F6006908E
:100FCE0000CE74FEF07D807F0E12196A9000CEE086
:010FDE00FF13
:010FDF0022EF
:10178E00D2B700C2B700D2B7007D0F7F011217D0BB
:10179E00007D3D7F111217D07D1E7F2D1217D0E4D4
:1017AE00FD7F2C1217D07D8D7F2A1217D07D3E7FA4
:0E17BE002B1217D07D407F151217D07F00220E
:1016C400EF644170401219177D3D7F111217D07DD0
:1016D400867F171217D07D7F7F261217D07D1E7F3D
:1016E4002D1217D0E4FD7F2C1217D07D8D7F2A1286
:1016F40017D07D3E7F2B1217D07F017E001218B0C9
:0B17040012193B80037FFF227F0022B0
:06170F00AC07AB05E4FE8F
:10171500E4FED2B3C2B6EF25E0547E4480FF7D08D7
:10172500EF30E703D38001C392B5C2B3EF25E0FFE5
:10173500D2B3DDEC7D08C2B3EE25E0FEA2B4E433FE
:0A1745004EFED2B3DDF0D2B6AF06BF
:01174F002277
:0417CC00E4FD7F01B8
:1017D000D2B3C2B6EF25E0547EFF7E08EF30E703B8
:1017E000D38001C392B5C2B3EF25E0FFD2B3DEECE4
:1017F0007E08ED30E703D38001C392B5C2B3ED2577
:08180000E0FDD2B3DEECD2B62C
:0118080022BD
:0D196A0012170FAE07AF04EB4EFD0217D0B1
:05191600F07D087F08D0
:0E191B0012170FAE07AF04EBF45EFD0217D0FB
:1008AE009000E5EBF0A3EAF0A3E9F09000E4EFF09E
:1008BE009000EF74FEF0E4A3F0A3F0EF24F46010C8
:1008CE0024FE70169000F07412F0A37410F0800ADB
:1008DE009000F07477F0A37430F09000F0E0448054
:1008EE00FD7F021217D07D807F0412191B1217CCC8
:1008FE007D807F0A12196AE49000F3F0A3F0900055
:10090E00E8E0FF9000F3E0FCA3E0FDC39FEC940051
:10091E0050289000E5E0FBA3E0FAA3E0F98D828C6D
:10092E00831203F5FD7F091217D09000F4E004F056
:10093E0070CC9000F3E004F080C49000E4E0FD7F02
:10094E00011217D0E0B40C077D807F0D12196A904A
:10095E0000F37407F0A374D0F07F04121715900003
:10096E00F2EFF09000F4E024FFF09000F3E034FF9B
:10097E00F0E07002A3E060119000F2E0FF20E009C9
:10098E009000F1E0FEEF5E60D07D807F0D12191BAE
:10099E009000F3E07002A3E07003020A917F06124A
:1009AE001715EF541B6003020A8B9000EFF0A3E0C3
:1009BE00FF9000F2E05F30E0069000EF74FFF090E1
:1009CE0000E4E0640C6003020A917F0A121715908E
:1009DE0000F2EFF07F0C121715EF5407FD6026E0C2
:1009EE0024FFFFE434FFFEEF7803C333CE33CED8BB
:1009FE00F97C002DFFEC3EF99000ECE0FBA3E0FA51
:100A0E00A3E0C980169000F2E075F008A4FF9000F4
:100A1E00ECE0FBA3E0FAA3E0F9E5F08FF012046C32
:100A2E009000F2E0700204F09000F2E0D3941240D5
:100A3E00037412F0E49000F3F0A3F09000F2E0FFE4
:100A4E00C39000F4E09F9000F3E0940050357F09CE
:100A5E001217159000E9E0FBA3E0FAA3E0F990006D
:100A6E00F3E0FCA3E0F5828C83EF1204349000F4E3
:100A7E00E004F070C69000F3E004F080BE9000EF4A
:100A8E0074FEF07D807F0C12196A1217CC9000EF65
:020A9E00E0FF77
:010AA0002233
:10193B007F14121715EF540370077D037F141219D0
:01194B006A31
:01194C002278
:07198A007D037F1402191B0D
:1018B000E4F5CAF5CCD2CAEF1FAC0670011E4C602D
:0B18C0000730CFFDC2CF80EFC2CA226C
:030000000211BA30
:0C11BA00787FE4F6D8FD75812002120158
:1003DC00BB010689828A83E0225002E722BBFE021F
:0903EC00E32289828A83E4932252
:1003F500BB010CE58229F582E5833AF583E02250BD
:1004050006E92582F8E622BBFE06E92582F8E22206
:0D041500E58229F582E5833AF583E4932220
:10042200BB010689828A83F0225002F722BBFE01B9
:02043200F322B3
:10043400F8BB010DE58229F582E5833AF583E8F0FE
:10044400225006E92582C8F622BBFE05E92582C8AA
:02045400F22292
:10045600A3F8E0C5F025F0F0E58215827002158359
:06046600E0C838F0E822B6
:10046C00BB010A89828A83F0E5F0A3F0225006F7DB
:0F047C0009A7F01922BBFE06F3E5F009F31922D8
:10048B00EB9FF5F0EA9E42F0E99D42F0EC6480C8E8
:06049B0064809845F02288
:0C04A100A42582F582E5F03583F5832266
:1004AD00E3F5F009E208B5F06D606B80F3E3F5F06C
:1004BD0009E608B5F060605E80F387F009E608B5DF
:1004CD00F054605280F487F009E208B5F0486046B8
:1004DD0080F488828C8387F009E0A3B5F03860360C
:1004ED0080F488828C8387F009E493A3B5F02760AC
:1004FD002580F388828C83E3F5F009E0A3B5F0162F
:10050D00601480F388828C83E3F5F009E493A3B53E
:10051D00F004600280F20205D8808580E7808E802D
:10052D00D2803C8015806C807E809B80B5808B80D6
:10053D00A1804F8070803A0205E489828A83ECFAAB
:10054D00E493F5F0A3C8C582C8CCC583CCE493A3CE
:10055D00C8C582C8CCC583CCB5F070606E80E1890A
:10056D00828A83E493F5F0A3E208B5F05E605C80C7
:10057D00F289828A83E0F5F0A3E608B5F04D604B71
:10058D0080F389828A83E0F5F0A3E208B5F03C6040
:10059D003A80F389828A83E493F5F0A3E608B5F0F7
:1005AD002A602880F2805389828A83ECFAE493F5DD
:1005BD00F0A3C8C582C8CCC583CCE0A3C8C582C88A
:1005CD00CCC583CCB5F004600280E27FFFB5F002AC
:1005DD000F2240027F012289828A83ECFAE0F5F036
:1005ED00A3C8C582C8CCC583CCE0A3C8C582C8CC7E
:1005FD00C583CCB5F0D560D380E389828A83ECFACC
:10060D00E0F5F0A3C8C582C8CCC583CCE493A3C8DC
:10061D00C582C8CCC583CCB5F0B160AF80E288F09F
:10062D00ED2402B4040050A3F582EB2402B40400BF
:0B063D0050992323458223900526736B
:10000E00E4FFFE1203DC600C0FEF70010E09E970C5
:05001E00F20A80EF2250
:1011C60002143CE493A3F8E493A34003F68001F2EF
:1011D60008DFF48029E493A3F85407240CC8C3332A
:1011E600C4540F4420C8834004F456800146F6DFF9
:1011F600E4800B0102040810204080900E58E47E23
:10120600019360BCA3FF543F30E509541FFEE493ED
:10121600A360010ECF54C025E060A840B8E493A3B4
:10122600FAE493A3F8E493A3C8C582C8CAC583CADF
:10123600F0A3C8C582C8CAC583CADFE9DEE780BE97
:010F220000CE
:00000001FF
