:10061F0053657269616C20496E6974696C697A659A
:07062F006400000000000060
:0F0681001205DE7BFF7A06791F1204C90203EC13
:10064B00C2837F017E00120604D2837F017E0002EB
:02065B00060493
:1003EC0078087C007D007BFF7A0679317E007F05E2
:1003FC001200D3E4F50DF50EF50FF5107B007A0025
:10040C00793B7F52120387EF70F2FB7A0079081266
:10041C00030CEF70E7F50CF50D7408250DF8E6FFED
:10042C001205B7050DE50DC3940440ED12064B8083
:01043C00CBF4
:1005DE005389CF438920758DFAE4F58BD28E7598A9
:1005EE0050D2AFD2AC1205091206B112066FE4F565
:0605FE00807F4102043D74
:0806A9008F993099FDC29922DE
:060580008B448A45894608
:10058600E4F5491206368E478F48E4FDFCC3ED9527
:1005960048EC9547501AAB44AA45A9468D828C83F0
:1005A6001200F9F549FF1206A90DBD00010C80DD08
:0105B6002222
:0604C9008B088A09890A74
:1004CF00E4F50D1206368E0B8F0CE4FDFCC3ED9593
:1004DF000CEC950B501AAB08AA09A90A8D828C83D4
:1004EF001200F9F50DFF1206A90DBD00010C80DDFC
:0A04FF007F0D1206A97F0A0206A96C
:0205B700AE078D
:1005B900EEC4540F2430FFC3943A400474072FFF4C
:1005C9001206A9EE540F2430FFC3943A400474076D
:0505D9002FFF0206A93E
:080387008F118B128A138914F7
:10038F0012065D7D077F0D1205477D037F14120650
:10039F0090851117752E01752F0075300075311767
:1003AF007532007533007534157B007A0079177F2D
:1003BF000C120192EF7023E51664104515701BABFC
:1003CF0012AA13A914E517120126AB12AA13A91426
:0C03DF00900001E51812013880027FFE3A
:0103EB0022EF
:06030C008B118A12891317
:10031200E4F51512065DE4FD7F0D1205477D807F31
:100322000E120661751893751920752E02752F002D
:100332007530007531187532007533007534167BCF
:10034200007A0079187F0C1201928F14E514702B39
:10035200FF74182FF8E6AB11AA12A9138F827583C6
:100362000012013874182FF8E662150FBF04E27408
:10037200182FF8E6651560037514FE7D807F0E1256
:040382000690AF141E
:010386002254
:10050900D2B700C2B700D2B7007D0F7F01120547ED
:10051900007D3D7F111205477D1E7F2D120547E4A1
:10052900FD7F2C1205477D8D7F2A1205477D3E7F71
:0E0539002B1205477D407F151205477F0022DB
:10043D00EF6441704012065D7D3D7F111205477DD1
:10044D00867F171205477D7F7F261205477D1E7F0C
:10045D002D120547E4FD7F2C1205477D8D7F2A1255
:10046D0005477D3E7F2B1205477F017E0012060456
:0B047D0012066F80037FFF227F002229
:06048800AC07AB05E4FE29
:10048E00E4FED2B3C2B6EF25E0547E4480FF7D0871
:10049E00EF30E703D38001C392B5C2B3EF25E0FF7F
:1004AE00D2B3DDEC7D08C2B3EE25E0FEA2B4E43398
:0A04BE004206D2B3DDF0D2B6AF065D
:0104C8002211
:10054700D2B3C2B6EF25E0547EFF7E08EF30E70353
:10055700D38001C392B5C2B3EF25E0FFD2B3DEEC7F
:100567007E08ED30E703D38001C392B5C2B3ED2512
:08057700E0FDD2B3DEECD2B6C8
:01057F002259
:0D069000120488AE07AF04EB4EFD020547D3
:04065D007D087F088D
:0E066100120488AE07AF04EBF45EFD020547FD
:080192008F2A8B2B8A2C892D8A
:10019A007535FEE4F536F537E52A24F4600C24FEBD
:1001AA00700E7536127537108006753677753730CA
:1001BA00E5364480FD7F021205477D807F041206E2
:1001CA0061E4FD7F011205477D807F0A120690E4F3
:1001DA00F539F53AC3E53A952EE5399400501FAB47
:1001EA002BAA2CA92D853A828539831200F9FD7F25
:1001FA0009120547053AE53A70DA053980D6AD2A7B
:10020A007F01120547E52AB40C077D807F0D12068F
:10021A0090753907753AD07F0412048E8F38E53A03
:10022A00153A70021539E53A45396009E53820E092
:10023A0004553760E27D807F0D120661E53A453943
:10024A0070030202FB7F0612048EEF541B60030246
:10025A0002F8F535E538553630E0037535FFE52AFD
:10026A00640C60030202FB7F0A12048E8F387F0C33
:10027A0012048EEF5407FD6021E53824FFFFE434B1
:10028A00FFFEEF7803C333CE33CED8F97C002DFFBF
:10029A00EC3EAB32AA33A934800FE53875F008A4D6
:1002AA00FFAB32AA33A934E5F08FF012015AE538D0
:1002BA007003753801E538D394124003753812E497
:1002CA00F539F53AC3E53A9538E539940050227F75
:1002DA000912048EAB2FAA30A931853A8285398357
:1002EA00EF120138053AE53A70DA053980D67535E4
:1002FA00FE7D807F0C120690E4FD7F01120547AF58
:01030A0035BD
:01030B0022CF
:10066F007F1412048EEF540370077D037F1412065C
:01067F0090EA
:010680002257
:0706B1007D037F14020661C6
:10060400E4F5CAF5CCD2CAEF1FAC0670011E4C60EB
:0B0614000730CFFDC2CF80EFC2CA222A
:0300000002069D58
:0C069D00787FE4F6D8FD758149020681E3
:10000300E709F608DFFA8046E709F208DFFA803EDF
:1000130088828C83E709F0A3DFFA8032E309F608CC
:10002300DFFA8078E309F208DFFA807088828C8334
:10003300E309F0A3DFFA806489828A83E0A3F608E8
:10004300DFFA805889828A83E0A3F208DFFA804CC2
:1000530080D280FA80C680D4806980F28033801099
:1000630080A680EA809A80A880DA80E280CA803302
:1000730089828A83ECFAE493A3C8C582C8CCC5837A
:10008300CCF0A3C8C582C8CCC583CCDFE9DEE7804A
:100093000D89828A83E493A3F608DFF9ECFAA9F0C9
:1000A300EDFB2289828A83ECFAE0A3C8C582C8CC1F
:1000B300C583CCF0A3C8C582C8CCC583CCDFEADE38
:1000C300E880DB89828A83E493A3F208DFF980CC9A
:1000D30088F0EF60010E4E60C388F0ED2402B40493
:1000E3000050B9F582EB2402B4040050AF2323453A
:0600F3008223900053730C
:1000F900BB010CE58229F582E5833AF583E02250BC
:1001090006E92582F8E622BBFE06E92582F8E22205
:0D011900E58229F582E5833AF583E493221F
:10012600BB010689828A83F0225002F722BBFE01B8
:02013600F322B2
:10013800F8BB010DE58229F582E5833AF583E8F0FD
:10014800225006E92582C8F622BBFE05E92582C8A9
:02015800F22291
:10015A00BB010A89828A83F0E5F0A3F0225006F7F0
:0F016A0009A7F01922BBFE06F3E5F009F31922ED
:10063600E4FFFE120179600C0FEF70010E09E970FC
:05064600F20A80EF2222
:10017900BB010689828A83E0225002E722BBFE0284
:09018900E32289828A83E49322B7
:00000001FF
